{
  "_format": "hh-sol-artifact-1",
  "contractName": "SmartICases",
  "sourceName": "contracts/SmartICases.sol",
  "abi": [
    {
      "inputs": [],
      "stateMutability": "nonpayable",
      "type": "constructor"
    },
    {
      "anonymous": false,
      "inputs": [
        {
          "components": [
            {
              "internalType": "uint256",
              "name": "id",
              "type": "uint256"
            },
            {
              "internalType": "string",
              "name": "location",
              "type": "string"
            },
            {
              "internalType": "string",
              "name": "longitude",
              "type": "string"
            },
            {
              "internalType": "string",
              "name": "latitude",
              "type": "string"
            },
            {
              "internalType": "string",
              "name": "cid",
              "type": "string"
            },
            {
              "internalType": "string",
              "name": "fileName",
              "type": "string"
            },
            {
              "internalType": "string",
              "name": "time",
              "type": "string"
            },
            {
              "internalType": "string",
              "name": "date",
              "type": "string"
            },
            {
              "internalType": "string",
              "name": "category",
              "type": "string"
            },
            {
              "internalType": "bool",
              "name": "verified",
              "type": "bool"
            }
          ],
          "indexed": false,
          "internalType": "struct SmartICases.Case",
          "name": "",
          "type": "tuple"
        }
      ],
      "name": "NewCase",
      "type": "event"
    },
    {
      "inputs": [
        {
          "internalType": "string",
          "name": "_cid",
          "type": "string"
        },
        {
          "internalType": "string",
          "name": "_filename",
          "type": "string"
        },
        {
          "internalType": "string",
          "name": "_location",
          "type": "string"
        },
        {
          "internalType": "string",
          "name": "_longitude",
          "type": "string"
        },
        {
          "internalType": "string",
          "name": "_latitude",
          "type": "string"
        },
        {
          "internalType": "string",
          "name": "_time",
          "type": "string"
        },
        {
          "internalType": "string",
          "name": "_date",
          "type": "string"
        },
        {
          "internalType": "string",
          "name": "_category",
          "type": "string"
        }
      ],
      "name": "addCase",
      "outputs": [],
      "stateMutability": "nonpayable",
      "type": "function"
    },
    {
      "inputs": [],
      "name": "caseCount",
      "outputs": [
        {
          "internalType": "uint256",
          "name": "",
          "type": "uint256"
        }
      ],
      "stateMutability": "view",
      "type": "function"
    },
    {
      "inputs": [
        {
          "internalType": "uint256",
          "name": "",
          "type": "uint256"
        }
      ],
      "name": "cases",
      "outputs": [
        {
          "internalType": "uint256",
          "name": "id",
          "type": "uint256"
        },
        {
          "internalType": "string",
          "name": "location",
          "type": "string"
        },
        {
          "internalType": "string",
          "name": "longitude",
          "type": "string"
        },
        {
          "internalType": "string",
          "name": "latitude",
          "type": "string"
        },
        {
          "internalType": "string",
          "name": "cid",
          "type": "string"
        },
        {
          "internalType": "string",
          "name": "fileName",
          "type": "string"
        },
        {
          "internalType": "string",
          "name": "time",
          "type": "string"
        },
        {
          "internalType": "string",
          "name": "date",
          "type": "string"
        },
        {
          "internalType": "string",
          "name": "category",
          "type": "string"
        },
        {
          "internalType": "bool",
          "name": "verified",
          "type": "bool"
        }
      ],
      "stateMutability": "view",
      "type": "function"
    },
    {
      "inputs": [],
      "name": "getAllCases",
      "outputs": [
        {
          "components": [
            {
              "internalType": "uint256",
              "name": "id",
              "type": "uint256"
            },
            {
              "internalType": "string",
              "name": "location",
              "type": "string"
            },
            {
              "internalType": "string",
              "name": "longitude",
              "type": "string"
            },
            {
              "internalType": "string",
              "name": "latitude",
              "type": "string"
            },
            {
              "internalType": "string",
              "name": "cid",
              "type": "string"
            },
            {
              "internalType": "string",
              "name": "fileName",
              "type": "string"
            },
            {
              "internalType": "string",
              "name": "time",
              "type": "string"
            },
            {
              "internalType": "string",
              "name": "date",
              "type": "string"
            },
            {
              "internalType": "string",
              "name": "category",
              "type": "string"
            },
            {
              "internalType": "bool",
              "name": "verified",
              "type": "bool"
            }
          ],
          "internalType": "struct SmartICases.Case[]",
          "name": "",
          "type": "tuple[]"
        }
      ],
      "stateMutability": "view",
      "type": "function"
    },
    {
      "inputs": [
        {
          "internalType": "uint256",
          "name": "_id",
          "type": "uint256"
        }
      ],
      "name": "getCaseById",
      "outputs": [
        {
          "components": [
            {
              "internalType": "uint256",
              "name": "id",
              "type": "uint256"
            },
            {
              "internalType": "string",
              "name": "location",
              "type": "string"
            },
            {
              "internalType": "string",
              "name": "longitude",
              "type": "string"
            },
            {
              "internalType": "string",
              "name": "latitude",
              "type": "string"
            },
            {
              "internalType": "string",
              "name": "cid",
              "type": "string"
            },
            {
              "internalType": "string",
              "name": "fileName",
              "type": "string"
            },
            {
              "internalType": "string",
              "name": "time",
              "type": "string"
            },
            {
              "internalType": "string",
              "name": "date",
              "type": "string"
            },
            {
              "internalType": "string",
              "name": "category",
              "type": "string"
            },
            {
              "internalType": "bool",
              "name": "verified",
              "type": "bool"
            }
          ],
          "internalType": "struct SmartICases.Case",
          "name": "",
          "type": "tuple"
        }
      ],
      "stateMutability": "view",
      "type": "function"
    },
    {
      "inputs": [
        {
          "internalType": "uint256",
          "name": "_id",
          "type": "uint256"
        }
      ],
      "name": "getPinnedCaseById",
      "outputs": [
        {
          "components": [
            {
              "internalType": "uint256",
              "name": "caseId",
              "type": "uint256"
            },
            {
              "internalType": "uint256",
              "name": "pinnedCaseId",
              "type": "uint256"
            },
            {
              "internalType": "string",
              "name": "location",
              "type": "string"
            },
            {
              "internalType": "string",
              "name": "longitude",
              "type": "string"
            },
            {
              "internalType": "string",
              "name": "latitude",
              "type": "string"
            },
            {
              "internalType": "string",
              "name": "cid",
              "type": "string"
            },
            {
              "internalType": "string",
              "name": "fileName",
              "type": "string"
            },
            {
              "internalType": "string",
              "name": "time",
              "type": "string"
            },
            {
              "internalType": "string",
              "name": "date",
              "type": "string"
            },
            {
              "internalType": "string",
              "name": "category",
              "type": "string"
            },
            {
              "internalType": "bool",
              "name": "verified",
              "type": "bool"
            },
            {
              "internalType": "address",
              "name": "user",
              "type": "address"
            }
          ],
          "internalType": "struct SmartICases.PinnedCase",
          "name": "",
          "type": "tuple"
        }
      ],
      "stateMutability": "view",
      "type": "function"
    },
    {
      "inputs": [
        {
          "internalType": "address",
          "name": "_user",
          "type": "address"
        }
      ],
      "name": "getPinnedCases",
      "outputs": [
        {
          "components": [
            {
              "internalType": "uint256",
              "name": "caseId",
              "type": "uint256"
            },
            {
              "internalType": "uint256",
              "name": "pinnedCaseId",
              "type": "uint256"
            },
            {
              "internalType": "string",
              "name": "location",
              "type": "string"
            },
            {
              "internalType": "string",
              "name": "longitude",
              "type": "string"
            },
            {
              "internalType": "string",
              "name": "latitude",
              "type": "string"
            },
            {
              "internalType": "string",
              "name": "cid",
              "type": "string"
            },
            {
              "internalType": "string",
              "name": "fileName",
              "type": "string"
            },
            {
              "internalType": "string",
              "name": "time",
              "type": "string"
            },
            {
              "internalType": "string",
              "name": "date",
              "type": "string"
            },
            {
              "internalType": "string",
              "name": "category",
              "type": "string"
            },
            {
              "internalType": "bool",
              "name": "verified",
              "type": "bool"
            },
            {
              "internalType": "address",
              "name": "user",
              "type": "address"
            }
          ],
          "internalType": "struct SmartICases.PinnedCase[]",
          "name": "",
          "type": "tuple[]"
        }
      ],
      "stateMutability": "view",
      "type": "function"
    },
    {
      "inputs": [],
      "name": "name",
      "outputs": [
        {
          "internalType": "string",
          "name": "",
          "type": "string"
        }
      ],
      "stateMutability": "view",
      "type": "function"
    },
    {
      "inputs": [
        {
          "internalType": "uint256",
          "name": "_id",
          "type": "uint256"
        }
      ],
      "name": "pinCase",
      "outputs": [],
      "stateMutability": "nonpayable",
      "type": "function"
    },
    {
      "inputs": [],
      "name": "pinnedCaseCount",
      "outputs": [
        {
          "internalType": "uint256",
          "name": "",
          "type": "uint256"
        }
      ],
      "stateMutability": "view",
      "type": "function"
    },
    {
      "inputs": [
        {
          "internalType": "uint256",
          "name": "",
          "type": "uint256"
        }
      ],
      "name": "pinnedCases",
      "outputs": [
        {
          "internalType": "uint256",
          "name": "caseId",
          "type": "uint256"
        },
        {
          "internalType": "uint256",
          "name": "pinnedCaseId",
          "type": "uint256"
        },
        {
          "internalType": "string",
          "name": "location",
          "type": "string"
        },
        {
          "internalType": "string",
          "name": "longitude",
          "type": "string"
        },
        {
          "internalType": "string",
          "name": "latitude",
          "type": "string"
        },
        {
          "internalType": "string",
          "name": "cid",
          "type": "string"
        },
        {
          "internalType": "string",
          "name": "fileName",
          "type": "string"
        },
        {
          "internalType": "string",
          "name": "time",
          "type": "string"
        },
        {
          "internalType": "string",
          "name": "date",
          "type": "string"
        },
        {
          "internalType": "string",
          "name": "category",
          "type": "string"
        },
        {
          "internalType": "bool",
          "name": "verified",
          "type": "bool"
        },
        {
          "internalType": "address",
          "name": "user",
          "type": "address"
        }
      ],
      "stateMutability": "view",
      "type": "function"
    }
  ],
  "bytecode": "0x6080604052600060035560006004553480156200001b57600080fd5b506040518060400160405280601081526020017f536d617274492045766964656e6365730000000000000000000000000000000081525060009081620000629190620002e3565b50620003ca565b600081519050919050565b7f4e487b7100000000000000000000000000000000000000000000000000000000600052604160045260246000fd5b7f4e487b7100000000000000000000000000000000000000000000000000000000600052602260045260246000fd5b60006002820490506001821680620000eb57607f821691505b602082108103620001015762000100620000a3565b5b50919050565b60008190508160005260206000209050919050565b60006020601f8301049050919050565b600082821b905092915050565b6000600883026200016b7fffffffffffffffffffffffffffffffffffffffffffffffffffffffffffffffff826200012c565b6200017786836200012c565b95508019841693508086168417925050509392505050565b6000819050919050565b6000819050919050565b6000620001c4620001be620001b8846200018f565b62000199565b6200018f565b9050919050565b6000819050919050565b620001e083620001a3565b620001f8620001ef82620001cb565b84845462000139565b825550505050565b600090565b6200020f62000200565b6200021c818484620001d5565b505050565b5b8181101562000244576200023860008262000205565b60018101905062000222565b5050565b601f82111562000293576200025d8162000107565b62000268846200011c565b8101602085101562000278578190505b6200029062000287856200011c565b83018262000221565b50505b505050565b600082821c905092915050565b6000620002b86000198460080262000298565b1980831691505092915050565b6000620002d38383620002a5565b9150826002028217905092915050565b620002ee8262000069565b67ffffffffffffffff8111156200030a576200030962000074565b5b620003168254620000d2565b6200032382828562000248565b600060209050601f8311600181146200035b576000841562000346578287015190505b620003528582620002c5565b865550620003c2565b601f1984166200036b8662000107565b60005b8281101562000395578489015182556001820191506020850194506020810190506200036e565b86831015620003b55784890151620003b1601f891682620002a5565b8355505b6001600288020188555050505b505050505050565b613c1580620003da6000396000f3fe608060405234801561001057600080fd5b50600436106100a95760003560e01c8063c465c64611610071578063c465c64614610166578063da2d7e95146101a1578063e070d40f146101bf578063e2c3b374146101db578063f09790dd1461020b578063fb40c22a14610244576100a9565b806306fdde03146100ae5780632d49171f146100cc578063639a3955146100ea57806384c13b1f1461011a578063a104a70b1461014a575b600080fd5b6100b6610262565b6040516100c391906127f1565b60405180910390f35b6100d46102f0565b6040516100e1919061282c565b60405180910390f35b61010460048036038101906100ff91906128b9565b6102f6565b6040516101119190612b60565b60405180910390f35b610134600480360381019061012f9190612bae565b610a0d565b6040516101419190612d10565b60405180910390f35b610164600480360381019061015f9190612e67565b610f65565b005b610180600480360381019061017b9190612bae565b611100565b6040516101989c9b9a9998979695949392919061301b565b60405180910390f35b6101a96115cd565b6040516101b6919061282c565b60405180910390f35b6101d960048036038101906101d49190612bae565b6115d3565b005b6101f560048036038101906101f09190612bae565b61175b565b6040516102029190613218565b60405180910390f35b61022560048036038101906102209190612bae565b611c53565b60405161023b9a9998979695949392919061323a565b60405180910390f35b61024c6120f4565b60405161025991906134db565b60405180910390f35b6000805461026f9061352c565b80601f016020809104026020016040519081016040528092919081815260200182805461029b9061352c565b80156102e85780601f106102bd576101008083540402835291602001916102e8565b820191906000526020600020905b8154815290600101906020018083116102cb57829003601f168201915b505050505081565b60045481565b60606000805b60045481101561039e578373ffffffffffffffffffffffffffffffffffffffff166002600060018461032e919061358c565b8152602001908152602001600020600a0160019054906101000a900473ffffffffffffffffffffffffffffffffffffffff1673ffffffffffffffffffffffffffffffffffffffff160361038b57600182610388919061358c565b91505b8080610396906135c0565b9150506102fc565b506000808267ffffffffffffffff8111156103bc576103bb612d3c565b5b6040519080825280602002602001820160405280156103f557816020015b6103e2612693565b8152602001906001900390816103da5790505b50905060005b600454811015610a01578573ffffffffffffffffffffffffffffffffffffffff166002600060018461042d919061358c565b8152602001908152602001600020600a0160019054906101000a900473ffffffffffffffffffffffffffffffffffffffff1673ffffffffffffffffffffffffffffffffffffffff16036109ee5760006002600060018461048d919061358c565b81526020019081526020016000209050806040518061018001604052908160008201548152602001600182015481526020016002820180546104ce9061352c565b80601f01602080910402602001604051908101604052809291908181526020018280546104fa9061352c565b80156105475780601f1061051c57610100808354040283529160200191610547565b820191906000526020600020905b81548152906001019060200180831161052a57829003601f168201915b505050505081526020016003820180546105609061352c565b80601f016020809104026020016040519081016040528092919081815260200182805461058c9061352c565b80156105d95780601f106105ae576101008083540402835291602001916105d9565b820191906000526020600020905b8154815290600101906020018083116105bc57829003601f168201915b505050505081526020016004820180546105f29061352c565b80601f016020809104026020016040519081016040528092919081815260200182805461061e9061352c565b801561066b5780601f106106405761010080835404028352916020019161066b565b820191906000526020600020905b81548152906001019060200180831161064e57829003601f168201915b505050505081526020016005820180546106849061352c565b80601f01602080910402602001604051908101604052809291908181526020018280546106b09061352c565b80156106fd5780601f106106d2576101008083540402835291602001916106fd565b820191906000526020600020905b8154815290600101906020018083116106e057829003601f168201915b505050505081526020016006820180546107169061352c565b80601f01602080910402602001604051908101604052809291908181526020018280546107429061352c565b801561078f5780601f106107645761010080835404028352916020019161078f565b820191906000526020600020905b81548152906001019060200180831161077257829003601f168201915b505050505081526020016007820180546107a89061352c565b80601f01602080910402602001604051908101604052809291908181526020018280546107d49061352c565b80156108215780601f106107f657610100808354040283529160200191610821565b820191906000526020600020905b81548152906001019060200180831161080457829003601f168201915b5050505050815260200160088201805461083a9061352c565b80601f01602080910402602001604051908101604052809291908181526020018280546108669061352c565b80156108b35780601f10610888576101008083540402835291602001916108b3565b820191906000526020600020905b81548152906001019060200180831161089657829003601f168201915b505050505081526020016009820180546108cc9061352c565b80601f01602080910402602001604051908101604052809291908181526020018280546108f89061352c565b80156109455780601f1061091a57610100808354040283529160200191610945565b820191906000526020600020905b81548152906001019060200180831161092857829003601f168201915b50505050508152602001600a820160009054906101000a900460ff16151515158152602001600a820160019054906101000a900473ffffffffffffffffffffffffffffffffffffffff1673ffffffffffffffffffffffffffffffffffffffff1673ffffffffffffffffffffffffffffffffffffffff16815250508385815181106109d2576109d1613608565b5b60200260200101819052506001846109ea919061358c565b9350505b80806109f9906135c0565b9150506103fb565b50809350505050919050565b610a15612693565b600354821115610a2457600080fd5b600060026000848152602001908152602001600020905080604051806101800160405290816000820154815260200160018201548152602001600282018054610a6c9061352c565b80601f0160208091040260200160405190810160405280929190818152602001828054610a989061352c565b8015610ae55780601f10610aba57610100808354040283529160200191610ae5565b820191906000526020600020905b815481529060010190602001808311610ac857829003601f168201915b50505050508152602001600382018054610afe9061352c565b80601f0160208091040260200160405190810160405280929190818152602001828054610b2a9061352c565b8015610b775780601f10610b4c57610100808354040283529160200191610b77565b820191906000526020600020905b815481529060010190602001808311610b5a57829003601f168201915b50505050508152602001600482018054610b909061352c565b80601f0160208091040260200160405190810160405280929190818152602001828054610bbc9061352c565b8015610c095780601f10610bde57610100808354040283529160200191610c09565b820191906000526020600020905b815481529060010190602001808311610bec57829003601f168201915b50505050508152602001600582018054610c229061352c565b80601f0160208091040260200160405190810160405280929190818152602001828054610c4e9061352c565b8015610c9b5780601f10610c7057610100808354040283529160200191610c9b565b820191906000526020600020905b815481529060010190602001808311610c7e57829003601f168201915b50505050508152602001600682018054610cb49061352c565b80601f0160208091040260200160405190810160405280929190818152602001828054610ce09061352c565b8015610d2d5780601f10610d0257610100808354040283529160200191610d2d565b820191906000526020600020905b815481529060010190602001808311610d1057829003601f168201915b50505050508152602001600782018054610d469061352c565b80601f0160208091040260200160405190810160405280929190818152602001828054610d729061352c565b8015610dbf5780601f10610d9457610100808354040283529160200191610dbf565b820191906000526020600020905b815481529060010190602001808311610da257829003601f168201915b50505050508152602001600882018054610dd89061352c565b80601f0160208091040260200160405190810160405280929190818152602001828054610e049061352c565b8015610e515780601f10610e2657610100808354040283529160200191610e51565b820191906000526020600020905b815481529060010190602001808311610e3457829003601f168201915b50505050508152602001600982018054610e6a9061352c565b80601f0160208091040260200160405190810160405280929190818152602001828054610e969061352c565b8015610ee35780601f10610eb857610100808354040283529160200191610ee3565b820191906000526020600020905b815481529060010190602001808311610ec657829003601f168201915b50505050508152602001600a820160009054906101000a900460ff16151515158152602001600a820160019054906101000a900473ffffffffffffffffffffffffffffffffffffffff1673ffffffffffffffffffffffffffffffffffffffff1673ffffffffffffffffffffffffffffffffffffffff1681525050915050919050565b6000885111610f7357600080fd5b6000875111610f8157600080fd5b6000865111610f8f57600080fd5b6000855111610f9d57600080fd5b6000845111610fab57600080fd5b6000835111610fb957600080fd5b6000825111610fc757600080fd5b6000815111610fd557600080fd5b60036000815480929190610fe8906135c0565b91905055506000600160006003548152602001908152602001600020905060035481600001819055508681600101908161102291906137e3565b508581600201908161103491906137e3565b508481600301908161104691906137e3565b508881600401908161105891906137e3565b508781600501908161106a91906137e3565b508381600601908161107c91906137e3565b508281600701908161108e91906137e3565b50818160080190816110a091906137e3565b5060008160090160006101000a81548160ff0219169083151502179055507fe47a6c8a8039cee784c1ad4d97c1970f58ec51bd26984847f353a9bec76a195d816040516110ed9190613aaa565b60405180910390a1505050505050505050565b600260205280600052604060002060009150905080600001549080600101549080600201805461112f9061352c565b80601f016020809104026020016040519081016040528092919081815260200182805461115b9061352c565b80156111a85780601f1061117d576101008083540402835291602001916111a8565b820191906000526020600020905b81548152906001019060200180831161118b57829003601f168201915b5050505050908060030180546111bd9061352c565b80601f01602080910402602001604051908101604052809291908181526020018280546111e99061352c565b80156112365780601f1061120b57610100808354040283529160200191611236565b820191906000526020600020905b81548152906001019060200180831161121957829003601f168201915b50505050509080600401805461124b9061352c565b80601f01602080910402602001604051908101604052809291908181526020018280546112779061352c565b80156112c45780601f10611299576101008083540402835291602001916112c4565b820191906000526020600020905b8154815290600101906020018083116112a757829003601f168201915b5050505050908060050180546112d99061352c565b80601f01602080910402602001604051908101604052809291908181526020018280546113059061352c565b80156113525780601f1061132757610100808354040283529160200191611352565b820191906000526020600020905b81548152906001019060200180831161133557829003601f168201915b5050505050908060060180546113679061352c565b80601f01602080910402602001604051908101604052809291908181526020018280546113939061352c565b80156113e05780601f106113b5576101008083540402835291602001916113e0565b820191906000526020600020905b8154815290600101906020018083116113c357829003601f168201915b5050505050908060070180546113f59061352c565b80601f01602080910402602001604051908101604052809291908181526020018280546114219061352c565b801561146e5780601f106114435761010080835404028352916020019161146e565b820191906000526020600020905b81548152906001019060200180831161145157829003601f168201915b5050505050908060080180546114839061352c565b80601f01602080910402602001604051908101604052809291908181526020018280546114af9061352c565b80156114fc5780601f106114d1576101008083540402835291602001916114fc565b820191906000526020600020905b8154815290600101906020018083116114df57829003601f168201915b5050505050908060090180546115119061352c565b80601f016020809104026020016040519081016040528092919081815260200182805461153d9061352c565b801561158a5780601f1061155f5761010080835404028352916020019161158a565b820191906000526020600020905b81548152906001019060200180831161156d57829003601f168201915b50505050509080600a0160009054906101000a900460ff169080600a0160019054906101000a900473ffffffffffffffffffffffffffffffffffffffff1690508c565b60035481565b6003548111156115e257600080fd5b60006001600083815260200190815260200160002090506004600081548092919061160c906135c0565b9190505550600060026000600454815260200190815260200160002090508281600001819055506004548160010181905550816001018160020190816116529190613af7565b50816002018160030190816116679190613af7565b508160030181600401908161167c9190613af7565b50816004018160050190816116919190613af7565b50816005018160060190816116a69190613af7565b50816006018160070190816116bb9190613af7565b50816007018160080190816116d09190613af7565b50816008018160090190816116e59190613af7565b508160090160009054906101000a900460ff1681600a0160006101000a81548160ff0219169083151502179055503381600a0160016101000a81548173ffffffffffffffffffffffffffffffffffffffff021916908373ffffffffffffffffffffffffffffffffffffffff160217905550505050565b61176361270c565b60035482111561177257600080fd5b60006001600084815260200190815260200160002090508060405180610140016040529081600082015481526020016001820180546117b09061352c565b80601f01602080910402602001604051908101604052809291908181526020018280546117dc9061352c565b80156118295780601f106117fe57610100808354040283529160200191611829565b820191906000526020600020905b81548152906001019060200180831161180c57829003601f168201915b505050505081526020016002820180546118429061352c565b80601f016020809104026020016040519081016040528092919081815260200182805461186e9061352c565b80156118bb5780601f10611890576101008083540402835291602001916118bb565b820191906000526020600020905b81548152906001019060200180831161189e57829003601f168201915b505050505081526020016003820180546118d49061352c565b80601f01602080910402602001604051908101604052809291908181526020018280546119009061352c565b801561194d5780601f106119225761010080835404028352916020019161194d565b820191906000526020600020905b81548152906001019060200180831161193057829003601f168201915b505050505081526020016004820180546119669061352c565b80601f01602080910402602001604051908101604052809291908181526020018280546119929061352c565b80156119df5780601f106119b4576101008083540402835291602001916119df565b820191906000526020600020905b8154815290600101906020018083116119c257829003601f168201915b505050505081526020016005820180546119f89061352c565b80601f0160208091040260200160405190810160405280929190818152602001828054611a249061352c565b8015611a715780601f10611a4657610100808354040283529160200191611a71565b820191906000526020600020905b815481529060010190602001808311611a5457829003601f168201915b50505050508152602001600682018054611a8a9061352c565b80601f0160208091040260200160405190810160405280929190818152602001828054611ab69061352c565b8015611b035780601f10611ad857610100808354040283529160200191611b03565b820191906000526020600020905b815481529060010190602001808311611ae657829003601f168201915b50505050508152602001600782018054611b1c9061352c565b80601f0160208091040260200160405190810160405280929190818152602001828054611b489061352c565b8015611b955780601f10611b6a57610100808354040283529160200191611b95565b820191906000526020600020905b815481529060010190602001808311611b7857829003601f168201915b50505050508152602001600882018054611bae9061352c565b80601f0160208091040260200160405190810160405280929190818152602001828054611bda9061352c565b8015611c275780601f10611bfc57610100808354040283529160200191611c27565b820191906000526020600020905b815481529060010190602001808311611c0a57829003601f168201915b505050505081526020016009820160009054906101000a900460ff161515151581525050915050919050565b6001602052806000526040600020600091509050806000015490806001018054611c7c9061352c565b80601f0160208091040260200160405190810160405280929190818152602001828054611ca89061352c565b8015611cf55780601f10611cca57610100808354040283529160200191611cf5565b820191906000526020600020905b815481529060010190602001808311611cd857829003601f168201915b505050505090806002018054611d0a9061352c565b80601f0160208091040260200160405190810160405280929190818152602001828054611d369061352c565b8015611d835780601f10611d5857610100808354040283529160200191611d83565b820191906000526020600020905b815481529060010190602001808311611d6657829003601f168201915b505050505090806003018054611d989061352c565b80601f0160208091040260200160405190810160405280929190818152602001828054611dc49061352c565b8015611e115780601f10611de657610100808354040283529160200191611e11565b820191906000526020600020905b815481529060010190602001808311611df457829003601f168201915b505050505090806004018054611e269061352c565b80601f0160208091040260200160405190810160405280929190818152602001828054611e529061352c565b8015611e9f5780601f10611e7457610100808354040283529160200191611e9f565b820191906000526020600020905b815481529060010190602001808311611e8257829003601f168201915b505050505090806005018054611eb49061352c565b80601f0160208091040260200160405190810160405280929190818152602001828054611ee09061352c565b8015611f2d5780601f10611f0257610100808354040283529160200191611f2d565b820191906000526020600020905b815481529060010190602001808311611f1057829003601f168201915b505050505090806006018054611f429061352c565b80601f0160208091040260200160405190810160405280929190818152602001828054611f6e9061352c565b8015611fbb5780601f10611f9057610100808354040283529160200191611fbb565b820191906000526020600020905b815481529060010190602001808311611f9e57829003601f168201915b505050505090806007018054611fd09061352c565b80601f0160208091040260200160405190810160405280929190818152602001828054611ffc9061352c565b80156120495780601f1061201e57610100808354040283529160200191612049565b820191906000526020600020905b81548152906001019060200180831161202c57829003601f168201915b50505050509080600801805461205e9061352c565b80601f016020809104026020016040519081016040528092919081815260200182805461208a9061352c565b80156120d75780601f106120ac576101008083540402835291602001916120d7565b820191906000526020600020905b8154815290600101906020018083116120ba57829003601f168201915b5050505050908060090160009054906101000a900460ff1690508a565b606060008060035467ffffffffffffffff81111561211557612114612d3c565b5b60405190808252806020026020018201604052801561214e57816020015b61213b61270c565b8152602001906001900390816121335790505b50905060005b60035481101561268a57600060018261216d919061358c565b905060006001600083815260200190815260200160002090508060405180610140016040529081600082015481526020016001820180546121ad9061352c565b80601f01602080910402602001604051908101604052809291908181526020018280546121d99061352c565b80156122265780601f106121fb57610100808354040283529160200191612226565b820191906000526020600020905b81548152906001019060200180831161220957829003601f168201915b5050505050815260200160028201805461223f9061352c565b80601f016020809104026020016040519081016040528092919081815260200182805461226b9061352c565b80156122b85780601f1061228d576101008083540402835291602001916122b8565b820191906000526020600020905b81548152906001019060200180831161229b57829003601f168201915b505050505081526020016003820180546122d19061352c565b80601f01602080910402602001604051908101604052809291908181526020018280546122fd9061352c565b801561234a5780601f1061231f5761010080835404028352916020019161234a565b820191906000526020600020905b81548152906001019060200180831161232d57829003601f168201915b505050505081526020016004820180546123639061352c565b80601f016020809104026020016040519081016040528092919081815260200182805461238f9061352c565b80156123dc5780601f106123b1576101008083540402835291602001916123dc565b820191906000526020600020905b8154815290600101906020018083116123bf57829003601f168201915b505050505081526020016005820180546123f59061352c565b80601f01602080910402602001604051908101604052809291908181526020018280546124219061352c565b801561246e5780601f106124435761010080835404028352916020019161246e565b820191906000526020600020905b81548152906001019060200180831161245157829003601f168201915b505050505081526020016006820180546124879061352c565b80601f01602080910402602001604051908101604052809291908181526020018280546124b39061352c565b80156125005780601f106124d557610100808354040283529160200191612500565b820191906000526020600020905b8154815290600101906020018083116124e357829003601f168201915b505050505081526020016007820180546125199061352c565b80601f01602080910402602001604051908101604052809291908181526020018280546125459061352c565b80156125925780601f1061256757610100808354040283529160200191612592565b820191906000526020600020905b81548152906001019060200180831161257557829003601f168201915b505050505081526020016008820180546125ab9061352c565b80601f01602080910402602001604051908101604052809291908181526020018280546125d79061352c565b80156126245780601f106125f957610100808354040283529160200191612624565b820191906000526020600020905b81548152906001019060200180831161260757829003601f168201915b505050505081526020016009820160009054906101000a900460ff16151515158152505084868151811061265b5761265a613608565b5b6020026020010181905250600185612673919061358c565b945050508080612682906135c0565b915050612154565b50809250505090565b60405180610180016040528060008152602001600081526020016060815260200160608152602001606081526020016060815260200160608152602001606081526020016060815260200160608152602001600015158152602001600073ffffffffffffffffffffffffffffffffffffffff1681525090565b6040518061014001604052806000815260200160608152602001606081526020016060815260200160608152602001606081526020016060815260200160608152602001606081526020016000151581525090565b600081519050919050565b600082825260208201905092915050565b60005b8381101561279b578082015181840152602081019050612780565b60008484015250505050565b6000601f19601f8301169050919050565b60006127c382612761565b6127cd818561276c565b93506127dd81856020860161277d565b6127e6816127a7565b840191505092915050565b6000602082019050818103600083015261280b81846127b8565b905092915050565b6000819050919050565b61282681612813565b82525050565b6000602082019050612841600083018461281d565b92915050565b6000604051905090565b600080fd5b600080fd5b600073ffffffffffffffffffffffffffffffffffffffff82169050919050565b60006128868261285b565b9050919050565b6128968161287b565b81146128a157600080fd5b50565b6000813590506128b38161288d565b92915050565b6000602082840312156128cf576128ce612851565b5b60006128dd848285016128a4565b91505092915050565b600081519050919050565b600082825260208201905092915050565b6000819050602082019050919050565b61291b81612813565b82525050565b600082825260208201905092915050565b600061293d82612761565b6129478185612921565b935061295781856020860161277d565b612960816127a7565b840191505092915050565b60008115159050919050565b6129808161296b565b82525050565b61298f8161287b565b82525050565b6000610180830160008301516129ae6000860182612912565b5060208301516129c16020860182612912565b50604083015184820360408601526129d98282612932565b915050606083015184820360608601526129f38282612932565b91505060808301518482036080860152612a0d8282612932565b91505060a083015184820360a0860152612a278282612932565b91505060c083015184820360c0860152612a418282612932565b91505060e083015184820360e0860152612a5b8282612932565b915050610100830151848203610100860152612a778282612932565b915050610120830151848203610120860152612a938282612932565b915050610140830151612aaa610140860182612977565b50610160830151612abf610160860182612986565b508091505092915050565b6000612ad68383612995565b905092915050565b6000602082019050919050565b6000612af6826128e6565b612b0081856128f1565b935083602082028501612b1285612902565b8060005b85811015612b4e5784840389528151612b2f8582612aca565b9450612b3a83612ade565b925060208a01995050600181019050612b16565b50829750879550505050505092915050565b60006020820190508181036000830152612b7a8184612aeb565b905092915050565b612b8b81612813565b8114612b9657600080fd5b50565b600081359050612ba881612b82565b92915050565b600060208284031215612bc457612bc3612851565b5b6000612bd284828501612b99565b91505092915050565b600061018083016000830151612bf46000860182612912565b506020830151612c076020860182612912565b5060408301518482036040860152612c1f8282612932565b91505060608301518482036060860152612c398282612932565b91505060808301518482036080860152612c538282612932565b91505060a083015184820360a0860152612c6d8282612932565b91505060c083015184820360c0860152612c878282612932565b91505060e083015184820360e0860152612ca18282612932565b915050610100830151848203610100860152612cbd8282612932565b915050610120830151848203610120860152612cd98282612932565b915050610140830151612cf0610140860182612977565b50610160830151612d05610160860182612986565b508091505092915050565b60006020820190508181036000830152612d2a8184612bdb565b905092915050565b600080fd5b600080fd5b7f4e487b7100000000000000000000000000000000000000000000000000000000600052604160045260246000fd5b612d74826127a7565b810181811067ffffffffffffffff82111715612d9357612d92612d3c565b5b80604052505050565b6000612da6612847565b9050612db28282612d6b565b919050565b600067ffffffffffffffff821115612dd257612dd1612d3c565b5b612ddb826127a7565b9050602081019050919050565b82818337600083830152505050565b6000612e0a612e0584612db7565b612d9c565b905082815260208101848484011115612e2657612e25612d37565b5b612e31848285612de8565b509392505050565b600082601f830112612e4e57612e4d612d32565b5b8135612e5e848260208601612df7565b91505092915050565b600080600080600080600080610100898b031215612e8857612e87612851565b5b600089013567ffffffffffffffff811115612ea657612ea5612856565b5b612eb28b828c01612e39565b985050602089013567ffffffffffffffff811115612ed357612ed2612856565b5b612edf8b828c01612e39565b975050604089013567ffffffffffffffff811115612f0057612eff612856565b5b612f0c8b828c01612e39565b965050606089013567ffffffffffffffff811115612f2d57612f2c612856565b5b612f398b828c01612e39565b955050608089013567ffffffffffffffff811115612f5a57612f59612856565b5b612f668b828c01612e39565b94505060a089013567ffffffffffffffff811115612f8757612f86612856565b5b612f938b828c01612e39565b93505060c089013567ffffffffffffffff811115612fb457612fb3612856565b5b612fc08b828c01612e39565b92505060e089013567ffffffffffffffff811115612fe157612fe0612856565b5b612fed8b828c01612e39565b9150509295985092959890939650565b6130068161296b565b82525050565b6130158161287b565b82525050565b600061018082019050613031600083018f61281d565b61303e602083018e61281d565b8181036040830152613050818d6127b8565b90508181036060830152613064818c6127b8565b90508181036080830152613078818b6127b8565b905081810360a083015261308c818a6127b8565b905081810360c08301526130a081896127b8565b905081810360e08301526130b481886127b8565b90508181036101008301526130c981876127b8565b90508181036101208301526130de81866127b8565b90506130ee610140830185612ffd565b6130fc61016083018461300c565b9d9c50505050505050505050505050565b6000610140830160008301516131266000860182612912565b506020830151848203602086015261313e8282612932565b915050604083015184820360408601526131588282612932565b915050606083015184820360608601526131728282612932565b9150506080830151848203608086015261318c8282612932565b91505060a083015184820360a08601526131a68282612932565b91505060c083015184820360c08601526131c08282612932565b91505060e083015184820360e08601526131da8282612932565b9150506101008301518482036101008601526131f68282612932565b91505061012083015161320d610120860182612977565b508091505092915050565b60006020820190508181036000830152613232818461310d565b905092915050565b600061014082019050613250600083018d61281d565b8181036020830152613262818c6127b8565b90508181036040830152613276818b6127b8565b9050818103606083015261328a818a6127b8565b9050818103608083015261329e81896127b8565b905081810360a08301526132b281886127b8565b905081810360c08301526132c681876127b8565b905081810360e08301526132da81866127b8565b90508181036101008301526132ef81856127b8565b90506132ff610120830184612ffd565b9b9a5050505050505050505050565b600081519050919050565b600082825260208201905092915050565b6000819050602082019050919050565b6000610140830160008301516133536000860182612912565b506020830151848203602086015261336b8282612932565b915050604083015184820360408601526133858282612932565b9150506060830151848203606086015261339f8282612932565b915050608083015184820360808601526133b98282612932565b91505060a083015184820360a08601526133d38282612932565b91505060c083015184820360c08601526133ed8282612932565b91505060e083015184820360e08601526134078282612932565b9150506101008301518482036101008601526134238282612932565b91505061012083015161343a610120860182612977565b508091505092915050565b6000613451838361333a565b905092915050565b6000602082019050919050565b60006134718261330e565b61347b8185613319565b93508360208202850161348d8561332a565b8060005b858110156134c957848403895281516134aa8582613445565b94506134b583613459565b925060208a01995050600181019050613491565b50829750879550505050505092915050565b600060208201905081810360008301526134f58184613466565b905092915050565b7f4e487b7100000000000000000000000000000000000000000000000000000000600052602260045260246000fd5b6000600282049050600182168061354457607f821691505b602082108103613557576135566134fd565b5b50919050565b7f4e487b7100000000000000000000000000000000000000000000000000000000600052601160045260246000fd5b600061359782612813565b91506135a283612813565b92508282019050808211156135ba576135b961355d565b5b92915050565b60006135cb82612813565b91507fffffffffffffffffffffffffffffffffffffffffffffffffffffffffffffffff82036135fd576135fc61355d565b5b600182019050919050565b7f4e487b7100000000000000000000000000000000000000000000000000000000600052603260045260246000fd5b60008190508160005260206000209050919050565b60006020601f8301049050919050565b600082821b905092915050565b6000600883026136997fffffffffffffffffffffffffffffffffffffffffffffffffffffffffffffffff8261365c565b6136a3868361365c565b95508019841693508086168417925050509392505050565b6000819050919050565b60006136e06136db6136d684612813565b6136bb565b612813565b9050919050565b6000819050919050565b6136fa836136c5565b61370e613706826136e7565b848454613669565b825550505050565b600090565b613723613716565b61372e8184846136f1565b505050565b5b818110156137525761374760008261371b565b600181019050613734565b5050565b601f8211156137975761376881613637565b6137718461364c565b81016020851015613780578190505b61379461378c8561364c565b830182613733565b50505b505050565b600082821c905092915050565b60006137ba6000198460080261379c565b1980831691505092915050565b60006137d383836137a9565b9150826002028217905092915050565b6137ec82612761565b67ffffffffffffffff81111561380557613804612d3c565b5b61380f825461352c565b61381a828285613756565b600060209050601f83116001811461384d576000841561383b578287015190505b61384585826137c7565b8655506138ad565b601f19841661385b86613637565b60005b828110156138835784890151825560018201915060208501945060208101905061385e565b868310156138a0578489015161389c601f8916826137a9565b8355505b6001600288020188555050505b505050505050565b60008160001c9050919050565b6000819050919050565b60006138df6138da836138b5565b6138c2565b9050919050565b600081546138f38161352c565b6138fd8186612921565b94506001821660008114613918576001811461392e57613961565b60ff198316865281151560200286019350613961565b61393785613637565b60005b838110156139595781548189015260018201915060208101905061393a565b808801955050505b50505092915050565b600060ff82169050919050565b600061398a613985836138b5565b61396a565b9050919050565b6000610140830160008084015490506139a9816138cc565b6139b66000870182612912565b506001840185830360208701526139cd83826138e6565b9250506002840185830360408701526139e683826138e6565b9250506003840185830360608701526139ff83826138e6565b925050600484018583036080870152613a1883826138e6565b9250506005840185830360a0870152613a3183826138e6565b9250506006840185830360c0870152613a4a83826138e6565b9250506007840185830360e0870152613a6383826138e6565b92505060088401858303610100870152613a7d83826138e6565b92505060098401549050613a9081613977565b613a9e610120870182612977565b50819250505092915050565b60006020820190508181036000830152613ac48184613991565b905092915050565b600081549050613adb8161352c565b9050919050565b60008190508160005260206000209050919050565b818103613b05575050613bdd565b613b0e82613acc565b67ffffffffffffffff811115613b2757613b26612d3c565b5b613b31825461352c565b613b3c828285613756565b6000601f831160018114613b6b5760008415613b59578287015490505b613b6385826137c7565b865550613bd6565b601f198416613b7987613ae2565b9650613b8486613637565b60005b82811015613bac57848901548255600182019150600185019450602081019050613b87565b86831015613bc95784890154613bc5601f8916826137a9565b8355505b6001600288020188555050505b5050505050505b56fea2646970667358221220bda3b6d1a6affae6e09759851eee0b6a06c7a313297137a73dbe7a915206959b64736f6c63430008110033",
  "linkReferences": {},
  "deployedLinkReferences": {}
}