{
  "_format": "hh-sol-artifact-1",
  "contractName": "SmartIEvidences",
  "sourceName": "contracts/SmartIEvidences.sol",
  "abi": [
    {
      "anonymous": false,
      "inputs": [
        {
          "components": [
            {
              "internalType": "uint256",
              "name": "id",
              "type": "uint256"
            },
            {
              "internalType": "string",
              "name": "name",
              "type": "string"
            },
            {
              "internalType": "string",
              "name": "description",
              "type": "string"
            },
            {
              "internalType": "string",
              "name": "fileUrl",
              "type": "string"
            },
            {
              "internalType": "address",
              "name": "user",
              "type": "address"
            }
          ],
          "indexed": false,
          "internalType": "struct SmartIEvidences.Evidence",
          "name": "",
          "type": "tuple"
        }
      ],
      "name": "NewEvidence",
      "type": "event"
    },
    {
      "inputs": [
        {
          "internalType": "string",
          "name": "_id",
          "type": "string"
        },
        {
          "internalType": "string",
          "name": "_name",
          "type": "string"
        },
        {
          "internalType": "string",
          "name": "_description",
          "type": "string"
        },
        {
          "internalType": "string",
          "name": "_fileUrl",
          "type": "string"
        }
      ],
      "name": "addEvidence",
      "outputs": [],
      "stateMutability": "nonpayable",
      "type": "function"
    },
    {
      "inputs": [],
      "name": "evidenceCount",
      "outputs": [
        {
          "internalType": "uint256",
          "name": "",
          "type": "uint256"
        }
      ],
      "stateMutability": "view",
      "type": "function"
    },
    {
      "inputs": [
        {
          "internalType": "uint256",
          "name": "",
          "type": "uint256"
        }
      ],
      "name": "evidences",
      "outputs": [
        {
          "internalType": "uint256",
          "name": "id",
          "type": "uint256"
        },
        {
          "internalType": "string",
          "name": "name",
          "type": "string"
        },
        {
          "internalType": "string",
          "name": "description",
          "type": "string"
        },
        {
          "internalType": "string",
          "name": "fileUrl",
          "type": "string"
        },
        {
          "internalType": "address",
          "name": "user",
          "type": "address"
        }
      ],
      "stateMutability": "view",
      "type": "function"
    },
    {
      "inputs": [
        {
          "internalType": "address",
          "name": "_user",
          "type": "address"
        }
      ],
      "name": "getAllEvidences",
      "outputs": [
        {
          "components": [
            {
              "internalType": "uint256",
              "name": "id",
              "type": "uint256"
            },
            {
              "internalType": "string",
              "name": "name",
              "type": "string"
            },
            {
              "internalType": "string",
              "name": "description",
              "type": "string"
            },
            {
              "internalType": "string",
              "name": "fileUrl",
              "type": "string"
            },
            {
              "internalType": "address",
              "name": "user",
              "type": "address"
            }
          ],
          "internalType": "struct SmartIEvidences.Evidence[]",
          "name": "",
          "type": "tuple[]"
        }
      ],
      "stateMutability": "view",
      "type": "function"
    },
    {
      "inputs": [
        {
          "internalType": "uint256",
          "name": "_id",
          "type": "uint256"
        }
      ],
      "name": "getEvidenceById",
      "outputs": [
        {
          "components": [
            {
              "internalType": "uint256",
              "name": "id",
              "type": "uint256"
            },
            {
              "internalType": "string",
              "name": "name",
              "type": "string"
            },
            {
              "internalType": "string",
              "name": "description",
              "type": "string"
            },
            {
              "internalType": "string",
              "name": "fileUrl",
              "type": "string"
            },
            {
              "internalType": "address",
              "name": "user",
              "type": "address"
            }
          ],
          "internalType": "struct SmartIEvidences.Evidence",
          "name": "",
          "type": "tuple"
        }
      ],
      "stateMutability": "view",
      "type": "function"
    }
  ],
  "bytecode": "0x6080604052600060015534801561001557600080fd5b50611744806100256000396000f3fe608060405234801561001057600080fd5b50600436106100575760003560e01c80631230b1911461005c5780632e4546cd14610078578063859958b3146100ac578063a2ed5af0146100dc578063f5b56dbb146100fa575b600080fd5b61007660048036038101906100719190610c51565b61012a565b005b610092600480360381019061008d9190610d5e565b610254565b6040516100a3959493929190610e5a565b60405180910390f35b6100c660048036038101906100c19190610eee565b610442565b6040516100d391906110c9565b60405180910390f35b6100e4610856565b6040516100f191906110eb565b60405180910390f35b610114600480360381019061010f9190610d5e565b61085c565b604051610121919061118a565b60405180910390f35b600084511161013857600080fd5b600083511161014657600080fd5b600082511161015457600080fd5b600081511161016257600080fd5b60016000815480929190610175906111db565b91905055506000806000600154815260200190815260200160002090506001548160000181905550838160010190816101ae919061142f565b50828160020190816101c0919061142f565b50818160030190816101d2919061142f565b50338160040160006101000a81548173ffffffffffffffffffffffffffffffffffffffff021916908373ffffffffffffffffffffffffffffffffffffffff1602179055507f51ea64fd2571605ed9b6d628f70560def1ba55cb0d626791f5b275b4d8822bb4816040516102459190611689565b60405180910390a15050505050565b600060205280600052604060002060009150905080600001549080600101805461027d90611252565b80601f01602080910402602001604051908101604052809291908181526020018280546102a990611252565b80156102f65780601f106102cb576101008083540402835291602001916102f6565b820191906000526020600020905b8154815290600101906020018083116102d957829003601f168201915b50505050509080600201805461030b90611252565b80601f016020809104026020016040519081016040528092919081815260200182805461033790611252565b80156103845780601f1061035957610100808354040283529160200191610384565b820191906000526020600020905b81548152906001019060200180831161036757829003601f168201915b50505050509080600301805461039990611252565b80601f01602080910402602001604051908101604052809291908181526020018280546103c590611252565b80156104125780601f106103e757610100808354040283529160200191610412565b820191906000526020600020905b8154815290600101906020018083116103f557829003601f168201915b5050505050908060040160009054906101000a900473ffffffffffffffffffffffffffffffffffffffff16905085565b60606000805b6001548110156104e9578373ffffffffffffffffffffffffffffffffffffffff1660008060018461047991906116ab565b815260200190815260200160002060040160009054906101000a900473ffffffffffffffffffffffffffffffffffffffff1673ffffffffffffffffffffffffffffffffffffffff16036104d6576001826104d391906116ab565b91505b80806104e1906111db565b915050610448565b506000808267ffffffffffffffff81111561050757610506610b26565b5b60405190808252806020026020018201604052801561054057816020015b61052d610ab2565b8152602001906001900390816105255790505b50905060005b60015481101561084a578573ffffffffffffffffffffffffffffffffffffffff1660008060018461057791906116ab565b815260200190815260200160002060040160009054906101000a900473ffffffffffffffffffffffffffffffffffffffff1673ffffffffffffffffffffffffffffffffffffffff16036108375760008060006001846105d691906116ab565b81526020019081526020016000209050806040518060a00160405290816000820154815260200160018201805461060c90611252565b80601f016020809104026020016040519081016040528092919081815260200182805461063890611252565b80156106855780601f1061065a57610100808354040283529160200191610685565b820191906000526020600020905b81548152906001019060200180831161066857829003601f168201915b5050505050815260200160028201805461069e90611252565b80601f01602080910402602001604051908101604052809291908181526020018280546106ca90611252565b80156107175780601f106106ec57610100808354040283529160200191610717565b820191906000526020600020905b8154815290600101906020018083116106fa57829003601f168201915b5050505050815260200160038201805461073090611252565b80601f016020809104026020016040519081016040528092919081815260200182805461075c90611252565b80156107a95780601f1061077e576101008083540402835291602001916107a9565b820191906000526020600020905b81548152906001019060200180831161078c57829003601f168201915b505050505081526020016004820160009054906101000a900473ffffffffffffffffffffffffffffffffffffffff1673ffffffffffffffffffffffffffffffffffffffff1673ffffffffffffffffffffffffffffffffffffffff168152505083858151811061081b5761081a6116df565b5b602002602001018190525060018461083391906116ab565b9350505b8080610842906111db565b915050610546565b50809350505050919050565b60015481565b610864610ab2565b600154821061087257600080fd5b60008060008481526020019081526020016000209050806040518060a0016040529081600082015481526020016001820180546108ae90611252565b80601f01602080910402602001604051908101604052809291908181526020018280546108da90611252565b80156109275780601f106108fc57610100808354040283529160200191610927565b820191906000526020600020905b81548152906001019060200180831161090a57829003601f168201915b5050505050815260200160028201805461094090611252565b80601f016020809104026020016040519081016040528092919081815260200182805461096c90611252565b80156109b95780601f1061098e576101008083540402835291602001916109b9565b820191906000526020600020905b81548152906001019060200180831161099c57829003601f168201915b505050505081526020016003820180546109d290611252565b80601f01602080910402602001604051908101604052809291908181526020018280546109fe90611252565b8015610a4b5780601f10610a2057610100808354040283529160200191610a4b565b820191906000526020600020905b815481529060010190602001808311610a2e57829003601f168201915b505050505081526020016004820160009054906101000a900473ffffffffffffffffffffffffffffffffffffffff1673ffffffffffffffffffffffffffffffffffffffff1673ffffffffffffffffffffffffffffffffffffffff1681525050915050919050565b6040518060a0016040528060008152602001606081526020016060815260200160608152602001600073ffffffffffffffffffffffffffffffffffffffff1681525090565b6000604051905090565b600080fd5b600080fd5b600080fd5b600080fd5b6000601f19601f8301169050919050565b7f4e487b7100000000000000000000000000000000000000000000000000000000600052604160045260246000fd5b610b5e82610b15565b810181811067ffffffffffffffff82111715610b7d57610b7c610b26565b5b80604052505050565b6000610b90610af7565b9050610b9c8282610b55565b919050565b600067ffffffffffffffff821115610bbc57610bbb610b26565b5b610bc582610b15565b9050602081019050919050565b82818337600083830152505050565b6000610bf4610bef84610ba1565b610b86565b905082815260208101848484011115610c1057610c0f610b10565b5b610c1b848285610bd2565b509392505050565b600082601f830112610c3857610c37610b0b565b5b8135610c48848260208601610be1565b91505092915050565b60008060008060808587031215610c6b57610c6a610b01565b5b600085013567ffffffffffffffff811115610c8957610c88610b06565b5b610c9587828801610c23565b945050602085013567ffffffffffffffff811115610cb657610cb5610b06565b5b610cc287828801610c23565b935050604085013567ffffffffffffffff811115610ce357610ce2610b06565b5b610cef87828801610c23565b925050606085013567ffffffffffffffff811115610d1057610d0f610b06565b5b610d1c87828801610c23565b91505092959194509250565b6000819050919050565b610d3b81610d28565b8114610d4657600080fd5b50565b600081359050610d5881610d32565b92915050565b600060208284031215610d7457610d73610b01565b5b6000610d8284828501610d49565b91505092915050565b610d9481610d28565b82525050565b600081519050919050565b600082825260208201905092915050565b60005b83811015610dd4578082015181840152602081019050610db9565b60008484015250505050565b6000610deb82610d9a565b610df58185610da5565b9350610e05818560208601610db6565b610e0e81610b15565b840191505092915050565b600073ffffffffffffffffffffffffffffffffffffffff82169050919050565b6000610e4482610e19565b9050919050565b610e5481610e39565b82525050565b600060a082019050610e6f6000830188610d8b565b8181036020830152610e818187610de0565b90508181036040830152610e958186610de0565b90508181036060830152610ea98185610de0565b9050610eb86080830184610e4b565b9695505050505050565b610ecb81610e39565b8114610ed657600080fd5b50565b600081359050610ee881610ec2565b92915050565b600060208284031215610f0457610f03610b01565b5b6000610f1284828501610ed9565b91505092915050565b600081519050919050565b600082825260208201905092915050565b6000819050602082019050919050565b610f5081610d28565b82525050565b600082825260208201905092915050565b6000610f7282610d9a565b610f7c8185610f56565b9350610f8c818560208601610db6565b610f9581610b15565b840191505092915050565b610fa981610e39565b82525050565b600060a083016000830151610fc76000860182610f47565b5060208301518482036020860152610fdf8282610f67565b91505060408301518482036040860152610ff98282610f67565b915050606083015184820360608601526110138282610f67565b91505060808301516110286080860182610fa0565b508091505092915050565b600061103f8383610faf565b905092915050565b6000602082019050919050565b600061105f82610f1b565b6110698185610f26565b93508360208202850161107b85610f37565b8060005b858110156110b757848403895281516110988582611033565b94506110a383611047565b925060208a0199505060018101905061107f565b50829750879550505050505092915050565b600060208201905081810360008301526110e38184611054565b905092915050565b60006020820190506111006000830184610d8b565b92915050565b600060a08301600083015161111e6000860182610f47565b50602083015184820360208601526111368282610f67565b915050604083015184820360408601526111508282610f67565b9150506060830151848203606086015261116a8282610f67565b915050608083015161117f6080860182610fa0565b508091505092915050565b600060208201905081810360008301526111a48184611106565b905092915050565b7f4e487b7100000000000000000000000000000000000000000000000000000000600052601160045260246000fd5b60006111e682610d28565b91507fffffffffffffffffffffffffffffffffffffffffffffffffffffffffffffffff8203611218576112176111ac565b5b600182019050919050565b7f4e487b7100000000000000000000000000000000000000000000000000000000600052602260045260246000fd5b6000600282049050600182168061126a57607f821691505b60208210810361127d5761127c611223565b5b50919050565b60008190508160005260206000209050919050565b60006020601f8301049050919050565b600082821b905092915050565b6000600883026112e57fffffffffffffffffffffffffffffffffffffffffffffffffffffffffffffffff826112a8565b6112ef86836112a8565b95508019841693508086168417925050509392505050565b6000819050919050565b600061132c61132761132284610d28565b611307565b610d28565b9050919050565b6000819050919050565b61134683611311565b61135a61135282611333565b8484546112b5565b825550505050565b600090565b61136f611362565b61137a81848461133d565b505050565b5b8181101561139e57611393600082611367565b600181019050611380565b5050565b601f8211156113e3576113b481611283565b6113bd84611298565b810160208510156113cc578190505b6113e06113d885611298565b83018261137f565b50505b505050565b600082821c905092915050565b6000611406600019846008026113e8565b1980831691505092915050565b600061141f83836113f5565b9150826002028217905092915050565b61143882610d9a565b67ffffffffffffffff81111561145157611450610b26565b5b61145b8254611252565b6114668282856113a2565b600060209050601f8311600181146114995760008415611487578287015190505b6114918582611413565b8655506114f9565b601f1984166114a786611283565b60005b828110156114cf578489015182556001820191506020850194506020810190506114aa565b868310156114ec57848901516114e8601f8916826113f5565b8355505b6001600288020188555050505b505050505050565b60008160001c9050919050565b6000819050919050565b600061152b61152683611501565b61150e565b9050919050565b6000815461153f81611252565b6115498186610f56565b94506001821660008114611564576001811461157a576115ad565b60ff1983168652811515602002860193506115ad565b61158385611283565b60005b838110156115a557815481890152600182019150602081019050611586565b808801955050505b50505092915050565b600073ffffffffffffffffffffffffffffffffffffffff82169050919050565b60006115e96115e483611501565b6115b6565b9050919050565b600060a08301600080840154905061160781611518565b6116146000870182610f47565b5060018401858303602087015261162b8382611532565b9250506002840185830360408701526116448382611532565b92505060038401858303606087015261165d8382611532565b92505060048401549050611670816115d6565b61167d6080870182610fa0565b50819250505092915050565b600060208201905081810360008301526116a381846115f0565b905092915050565b60006116b682610d28565b91506116c183610d28565b92508282019050808211156116d9576116d86111ac565b5b92915050565b7f4e487b7100000000000000000000000000000000000000000000000000000000600052603260045260246000fdfea26469706673582212205ddff7bfdd5275df9054bbf97b36d489d76896b8e50246ba64447eb3b466219f64736f6c63430008110033",
  "linkReferences": {},
  "deployedLinkReferences": {}
}